:100000000020001017010000E9000000EB000000D4
:1000100000000000000000000000000000000000E0
:10002000000000000000000000000000ED000000E3
:100030000000000000000000EF000000F1000000E0
:10004000F3000000F3000000F3000000F3000000E4
:10005000F3000000F3000000F3000000F3000000D4
:10006000F3000000F3000000F3000000F3000000C4
:10007000F3000000F3000000F3000000F3000000B4
:10008000F3000000F3000000F3000000F3000000A4
:10009000F3000000F300000000000000000000007A
:1000A000F3000000F3000000F30000000000000077
:1000B000F3000000F3000000F3000000F300000074
:1000C0005C02000000000010000000005C02000064
:1000D00000400020000000000000001000000000B0
:1000E0000040002000000000FEE7FEE7FEE7FEE71C
:1000F000FEE7FEE7002310B5934203D21C585C5084
:100100000433F9E710BD00238B4203D200221A50BA
:100110000433F9E7704710B50C4C0D4B9C4206D2E6
:1001200020686168A268FFF7E5FF0C34F5E7094B2A
:100130009C4205D220686168FFF7E5FF0834F6E7C6
:1001400000F020F800F086F8FEE7C046C00000008E
:10015000D8000000E800000080B500AF00F00EF805
:10016000BD4680BD80B500AFBD4680BD80B500AF47
:10017000FFF7F2FFFFF7F6FFFCE7C04680B500AFE0
:10018000BD4680BD37B58E2120202C4B89005A58A2
:1001900082435A5000221A620192019AC72A03D858
:1001A000C046019A0132F7E7012200211A645A641D
:1001B00059645A64596C214AC907FBD523218E2002
:1001C0008024916080001158A14311500121D8680A
:1001D0001A4A0842FAD0032010670020516750677E
:1001E00051670121586F154A0842FAD08E20916755
:1001F00080001558124C2C4014501558114C2C40AE
:10020000145000209164D164D064D164DA6CD207B8
:10021000FCD52321094A1161012259691142FBD001
:100220000021094B196019608021084B49021A60AE
:10023000074AD36F0B43D36737BDC04600800440E5
:10024000FFFBFFFFFFFEFFFFC0800440C8800440AB
:0C0250000480044008B5FFF789FF08BDDA
:0400000300000117E1
:00000001FF
