:100000000020001017010000E9000000EB000000D4
:1000100000000000000000000000000000000000E0
:10002000000000000000000000000000ED000000E3
:100030000000000000000000EF000000F1000000E0
:10004000F3000000F3000000F3000000F3000000E4
:10005000F3000000F3000000F3000000F3000000D4
:10006000F3000000F3000000F3000000F3000000C4
:10007000F3000000F3000000F3000000F3000000B4
:10008000F3000000F300000015030000F30000007F
:10009000F3000000F300000000000000000000007A
:1000A000F3000000F3000000F30000000000000077
:1000B000F3000000F3000000F3000000F300000074
:1000C0007404000000000010000000007404000030
:1000D00000400020000000000000001008000000A8
:1000E0000040002000000000FEE7FEE7FEE7FEE71C
:1000F000FEE7FEE7002310B5934203D21C585C5084
:100100000433F9E710BD00238B4203D200221A50BA
:100110000433F9E7704710B50C4C0D4B9C4206D2E6
:1001200020686168A268FFF7E5FF0C34F5E7094B2A
:100130009C4205D220686168FFF7E5FF0834F6E7C6
:1001400000F0EEF800F054F9FEE7C046C0000000F1
:10015000D8000000E800000080B582B000AF7860F1
:10016000034B7A681A6000F0A9F8BD4602B080BD62
:100170000400001080B582B000AF00237B606AE00D
:100180003D4B1A687B681B01D3185B7B5BB23B60FD
:100190003B68002B30D03B686433384A1278934276
:1001A0002ADD354B1A687B681B01D3189B68324ADD
:1001B00011687A6812018A18926811682E4A1068CC
:1001C0007A6812018218127B0A431A602A4B1A6855
:1001D0007B681B01D3181B68274A11687A681201D3
:1001E0008A1812681168244A10687A681201821805
:1001F00012790A431A602BE01F4B1A687B681B01B7
:10020000D3189B681C4A11687A6812018A18926890
:100210001168194A10687A6812018218127BD24359
:100220000A401A60144B1A687B681B01D3189B683C
:10023000114A11687A6812018A18926811680E4A88
:1002400010687A68120182181279D2430A401A6043
:100250007B6801337B607B68052B91DD074B1B7846
:100260000133181CC82100F0C7F80B1CDAB2034B8D
:100270001A70BD4602B080BD0400001000000010DE
:1002800080B598B000AF3B1C181CFFF765FFFEE778
:1002900080B582B000AF021CFB1D1A70064BFA1D20
:1002A0001278111C1F220A40012191400A1C1A6079
:1002B000BD4602B080BDC04600E100E080B500AFA1
:1002C0001249124A8023D35880229200134380227D
:1002D0008B500F4B00221A610D4B03229A610C4B7D
:1002E0000B4A126F01210A431A67094B084A5269E7
:1002F00001210A435A61064B054A126F03218A43C2
:100300001A671320FFF7C4FFBD4680BD008004407C
:100310000040014080B500AFFFF72CFFBD4680BD17
:1003200037B58E2120202C4B89005A5882435A50D1
:1003300000221A620192019AC72A03D8C046019A84
:100340000132F7E7012200211A645A6459645A64A1
:10035000596C214AC907FBD523218E208024916046
:1003600080001158A14311500121D8681A4A08424F
:10037000FAD00320106700205167506751670121B0
:10038000586F154A0842FAD08E20916780001558A0
:10039000124C2C4014501558114C2C401450002075
:1003A0009164D164D064D164DA6CD207FCD5232186
:1003B000094A1161012259691142FBD00021094B00
:1003C000196019608021084B49021A60074AD36FEF
:1003D0000B43D36737BDC04600800440FFFBFFFFDF
:1003E000FFFEFFFFC0800440C8800440048004403A
:1003F00008B5FFF745FF08BD03000B4321D40029D2
:1004000031D00122D207030901E009011209994202
:10041000FBD9430801E0490052089942FBD900E0AA
:100420004908401A07D35241FAD301461046704793
:1004300049084018F7D29218FAD3401801461046DE
:100440007047CB0F00D04942021000D540425340C4
:1004500008B5FFF7D4FF0CBC521000D34042002A6D
:1004600000D549421847F446002000F001F86047E3
:040470007047FFFFD3
:0400000300000117E1
:00000001FF
