:100000000020001017010000E9000000EB000000D4
:1000100000000000000000000000000000000000E0
:10002000000000000000000000000000ED000000E3
:100030000000000000000000EF000000F1000000E0
:10004000F3000000F3000000F3000000F3000000E4
:10005000F3000000F3000000F3000000F3000000D4
:10006000F3000000F3000000F3000000F3000000C4
:10007000F3000000F3000000F3000000F3000000B4
:10008000F3000000F3000000B9020000F3000000DC
:10009000F3000000F300000000000000000000007A
:1000A000F3000000F3000000F30000000000000077
:1000B000F3000000F3000000F3000000F300000074
:1000C0009C03000000000010000000009C030000E2
:1000D00000400020000000000000001008000000A8
:1000E0000040002000000000FEE7FEE7FEE7FEE71C
:1000F000FEE7FEE7002310B5934203D21C585C5084
:100100000433F9E710BD00238B4203D200221A50BA
:100110000433F9E7704710B50C4C0D4B9C4206D2E6
:1001200020686168A268FFF7E5FF0C34F5E7094B2A
:100130009C4205D220686168FFF7E5FF0834F6E7C6
:1001400000F0C0F800F026F9FEE7C046C00000004D
:10015000D8000000E800000080B582B000AF7860F1
:10016000034B7A681A6000F07BF8BD4602B080BD90
:100170000400001090B587B000AF00237B6140E021
:10018000264B1A687B691B01D2183B1D13CA13C387
:1001900012681A603B1D5B7B5BB2214A1278934266
:1001A00022DD3B1D1B683A1D12681268391D097952
:1001B0000A431A603B1D5B7B5BB2002B09DA3B1DD7
:1001C0009B683A1D92681268391D097B0A431A60C0
:1001D00014E03B1D9B683A1D92681268391D097B2B
:1001E000C9430A401A6009E03B1D1B683A1D1268AA
:1001F0001268391D0979C9430A401A607B690133C5
:100200007B617B69052BBBDD054B1B780133DAB2C3
:10021000034B1A70BD4607B090BDC04604000010E5
:100220000000001080B598B000AF3B1C181CFFF711
:1002300093FFFEE780B582B000AF021CFB1D1A7071
:10024000064BFA1D1278111C1F220A400121914011
:100250000A1C1A60BD4602B080BDC04600E100E045
:1002600080B500AF1249124A8023D35880229200F1
:10027000134380228B500F4B00221A610D4B062234
:100280009A610C4B0B4A126F01210A431A67094B02
:10029000084A526901210A435A61064B054A126F06
:1002A00003218A431A671320FFF7C4FFBD4680BDB0
:1002B000008004400040014080B500AFFFF75AFFC6
:1002C000BD4680BD37B58E2120202C4B89005A5861
:1002D00082435A5000221A620192019AC72A03D817
:1002E000C046019A0132F7E7012200211A645A64DC
:1002F00059645A64596C214AC907FBD523218E20C1
:100300008024916080001158A14311500121D868C8
:100310001A4A0842FAD0032010670020516750673C
:1003200051670121586F154A0842FAD08E20916713
:1003300080001558124C2C4014501558114C2C406C
:10034000145000209164D164D064D164DA6CD20777
:10035000FCD52321094A1161012259691142FBD0C0
:100360000021094B196019608021084B49021A606D
:10037000074AD36F0B43D36737BDC04600800440A4
:10038000FFFBFFFFFFFEFFFFC0800440C88004406A
:0C0390000480044008B5FFF745FF08BDDD
:0400000300000117E1
:00000001FF
